:100000000C9483000C94B4000C94B4000C94B400D1
:100010000C94B4000C94B4000C94B4000C94B40090
:100020000C94B4000C94B4000C94B4000C94B40080
:100030000C94B4000C94B4000C94B4000C94B40070
:100040000C94B4000C94B4000C94B4000C94B40060
:100050000C94B4000C94B4000C94B4000C94000301
:100060000C94B4000C9474030C944A030C94B400E4
:100070000C94B4000C94B4000C94B4000C94B40030
:100080000C94B4000C94B4000C94B4000C94B40020
:100090000C94B4000C94B4000C94B4000C94B40010
:1000A0000C94B4000C94B4000C94B4000C94B40000
:1000B0000C94B4000C94B4000C94B4000C94B400F0
:1000C0000C94B4000C94B4000C94B4000C94B400E0
:1000D0000C94B4000C94B4000C94B4000C94B400D0
:1000E0000C94B4000C94D9010C9454010C94460166
:1000F0000C9425050C94E3000C94F2000C94B600CB
:100100000C948C01250511241FBECFEFD1E2DEBF78
:10011000CDBF00E00CBF22E0A4E4B2E001C01D921C
:10012000AE3EB207E1F712E0A0E0B2E0E2E7FFE0A6
:1001300000E00BBF02C007900D92A434B107D9F7BD
:1001400010E0C3E8D0E000E006C021970109802F4D
:10015000FE010E948E05C238D10780E00807A9F78A
:100160000E94AA030C94B7070C940000AF92BF92B0
:10017000CF92DF92EF92FF920F931F93CF93DF9373
:100180006C017B018B01040F151FEB015E01AE18A2
:10019000BF08C017D10759F06991D601ED91FC91C4
:1001A0000190F081E02DC6011995892B79F7C501E1
:1001B000DF91CF911F910F91FF90EF90DF90CF9043
:1001C000BF90AF900895FC01538D448D252F30E0F2
:1001D000842F90E0821B930B541710F0CF96089554
:1001E00001970895FC01918D828D981761F0A28D81
:1001F000AE0FBF2FB11D5D968C91928D9F5F9F7347
:10020000928F90E008958FEF9FEF08952FB7F894A5
:100210008091490290914A02A0914B02B0914C0208
:100220002FBF8093550290935602A0935702B0932C
:1002300058028DE492E00E94F20097FF26C02FB78B
:10024000F8948091490290914A02A0914B02B0919A
:100250004C022FBF409155025091560260915702B7
:1002600070915802841B950BA60BB70B409151025D
:100270005091520260915302709154028417950775
:10028000A607B707B0F28FEF9FEF0895FC01918D9D
:10029000828D981731F0828DE80FF11D858D90E0E9
:1002A00008958FEF9FEF0895FC01918D228D892F86
:1002B00090E0805C9F4F821B91098F73992708956E
:1002C0008DE492E00E94540121E0892B09F420E0A2
:1002D000822F0895FC01A48DA80FB92FB11DA35A38
:1002E000BF4F2C91848D90E001968F739927848F56
:1002F000A689B7892C93A089B1898C918370806479
:100300008C93938D848D981306C00288F389E02D19
:1003100080818F7D80830895EF92FF920F931F93CA
:10032000CF93DF93EC0181E0888F9B8D8C8D9813A8
:100330001AC0E889F989808185FF15C09FB7F894B4
:10034000EE89FF896083E889F98980818370806400
:1003500080839FBF81E090E0DF91CF911F910F914B
:10036000FF90EF900895F62E0B8D10E00F5F1F4F5A
:100370000F731127E02E8C8D8E110CC00FB607FC69
:10038000FACFE889F989808185FFF5CFCE010E94F7
:100390006A01F1CFEB8DEC0FFD2FF11DE35AFF4FFA
:1003A000F0829FB7F8940B8FEA89FB898081806285
:1003B000CFCFCF93DF93EC01888D8823B9F0AA8942
:1003C000BB89E889F9898C9185FD03C0808186FD10
:1003D0000DC00FB607FCF7CF8C9185FFF2CF80815F
:1003E00085FFEDCFCE010E946A01E9CFDF91CF9169
:1003F000089580E090E0892B29F00E94600181112E
:100400000E94000080E090E0892B49F080E090E0BD
:10041000892B29F00E94000081110E94000080E0D9
:1004200090E0892B49F080E090E0892B29F00E9430
:10043000000081110E94000080E090E0892B49F0CB
:1004400080E090E0892B29F00E94000081110C943B
:10045000000008950F931F93CF93DF93EC018881E1
:100460009981009759F02A813B812617370730F090
:1004700081E0DF91CF911F910F9108958B016F5F04
:100480007F4F0E94BB06009759F0998388831B8396
:100490000A832C813D81232B59F7FC011082E8CF80
:1004A00080E0E7CFCF93DF93EC01888199810097BB
:1004B00011F00E943206198218821D821C821B8252
:1004C0001A82DF91CF910895CF93DF93EC0170E012
:1004D00060E00E942A02811105C0CE01DF91CF9118
:1004E0000C9452021D821C8262E472E08881998120
:1004F000DF91CF910C94B007EF92FF920F931F936F
:10050000CF93DF938C017B01EB0109900020E9F789
:100510002197C61BD70BBE010E942A02811109C078
:10052000C801DF91CF911F910F91FF90EF900C9434
:100530005202F801D583C483B70180819181DF9194
:10054000CF911F910F91FF90EF900C94B007AF9255
:10055000BF92CF92DF92EF92FF920F931F93CF93B0
:10056000DF93EC015B016A0179012417350720F460
:100570008D2D6901E42EF82E198218821B821A82B1
:100580001D821C82CE010E946402D50114960D9139
:100590001C91C016D106E8F4E016F10608F48701B4
:1005A000D501ED91FC911197E00FF11FF0801082C1
:1005B0006D917C916C0D7D1DCE0161157105A9F0C9
:1005C0000E947C02F50180819181080F191FD801DA
:1005D000FC92CE01DF91CF911F910F91FF90EF9090
:1005E000DF90CF90BF90AF9008950E945202EACF63
:1005F000FC0180819181009711F00C9432060895DE
:100600001F920F920FB60F9211242F933F938F9347
:100610009F93AF93BF938091490290914A02A0911A
:100620004B02B0914C023091480223E0230F2D374A
:1006300058F50196A11DB11D2093480280934902EF
:1006400090934A02A0934B02B0934C0280914402D3
:1006500090914502A0914602B09147020196A11DDA
:10066000B11D8093440290934502A0934602B0933B
:100670004702BF91AF919F918F913F912F910F9022
:100680000FBE0F901F90189526E8230F0296A11D0C
:10069000B11DD2CF1F920F920FB60F9211240BB63D
:1006A0000F922F933F934F935F936F937F938F930B
:1006B0009F93AF93BF93EF93FF938DE492E00E94DB
:1006C0006A01FF91EF91BF91AF919F918F917F91BF
:1006D0006F915F914F913F912F910F900BBE0F90B3
:1006E0000FBE0F901F9018951F920F920FB60F928A
:1006F00011240BB60F922F938F939F93EF93FF9339
:10070000E0915D02F0915E028081E0916302F091E0
:10071000640282FD1DC09081809166028F5F8F739D
:1007200020916702821741F0E0916602F0E0E35BFE
:10073000FD4F958F80936602FF91EF919F918F916E
:100740002F910F900BBE0F900FBE0F901F9018951A
:100750008081F2CFCF93DF93CDB7DEB72C970FB662
:10076000F894DEBF0FBECDBF789484B5826084BD9F
:1007700084B5816084BD85B5826085BD85B58160A5
:1007800085BD80916E00816080936E001092810023
:1007900080918100826080938100809181008160DE
:1007A000809381008091800081608093800080919F
:1007B000B10084608093B1008091B000816080932B
:1007C000B0008091910082608093910080919100AF
:1007D000816080939100809190008160809390006F
:1007E0008091A10082608093A1008091A10081602E
:1007F0008093A1008091A00081608093A0008091EF
:100800002101826080932101809121018160809388
:1008100021018091200181608093200180917A00E4
:10082000846080937A0080917A00826080937A005D
:1008300080917A00816080937A0080917A0080684C
:1008400080937A001092C100E0915D02F0915E0207
:1008500082E08083E0915902F0915A021082E09187
:100860005B02F0915C0280E1808310926502E0916E
:100870006102F091620286E08083E0915F02F09174
:100880006002808180618083E0915F02F09160026C
:10089000808188608083E0915F02F09160028081B6
:1008A00080688083E0915F02F091600280818F7D9B
:1008B00080838DE492E00E945401181619060CF012
:1008C000A7C018861F821A8619861C861B86CE0131
:1008D00007960E9464020E9406010B851C8597FD05
:1008E0001CC08A309105C9F089831A820F5F1F4F9F
:1008F000B801CE0107960E942A02882361F32F8156
:1009000038858B859C85BE016F5F7F4F820F931F5B
:100910000E94B0071C870B87DECF012B09F474C03F
:10092000EF80F8846CE270E0C7010E94A5078C019B
:100930000E191F09892B11F40FEF1FEF980150E0DA
:1009400040E0BE01695F7F4FCE0101960E94A70281
:1009500089819A81009709F45EC00E9452057B014B
:10096000CE0101960E94F8022B853C85A8014F5FBD
:100970005F4FBE01695F7F4FCE0101960E94A702C3
:1009800089819A81009709F44AC00E9452058B011F
:10099000CE0101960E94F8021A8219821C821B82E3
:1009A0001E821D82CE0101960E94640268E172E0FF
:1009B000E016F10649F081E0E816F104A1F50330F4
:1009C0001105C1F56DE172E0CE0101960E947C0235
:1009D00048E050E067E372E08DE492E00E94B600E8
:1009E0004D815E8169817A818DE492E00E94B6003A
:1009F00042E050E060E472E08DE492E00E94B600D4
:100A0000CE0101960E94F802CE0107960E94F802DC
:100A10000E94F9014ECF60E070E0CB01A0CF60E012
:100A200070E0CB01B4CF82E0E816F10431F401307C
:100A3000110541F26AE272E0C7CF83E0E816F104E3
:100A4000C9F702301105B1F7BDCFEDE4F2E0138232
:100A5000128288EE93E0A0E0B0E084839583A683C1
:100A6000B7838AE092E09183808385EC90E095875C
:100A7000848784EC90E09787868780EC90E0918B68
:100A8000808B81EC90E0938B828B82EC90E0958B55
:100A9000848B86EC90E0978B868B118E128E138E52
:100AA000148E08951F93FC0199278827BC01E894B0
:100AB00011911032E9F3193010F01E30C8F31B32D7
:100AC00051F01D3249F4689406C00E947905610F07
:100AD000711D811D911D119110531A30B0F33EF418
:100AE00090958095709561957F4F8F4F9F4F1F9187
:100AF0000895592F482F372F262F660F771F881FED
:100B0000991F660F771F881F991F620F731F841F1D
:100B1000951F660F771F881F991F0895EE0FFF1FFF
:100B2000881F8BBF0790F691E02D19940F931F93A8
:100B3000CF93DF938230910510F482E090E0E09152
:100B4000EC02F091ED0230E020E0B0E0A0E0309760
:100B500099F42115310509F44AC0281B390B2430BA
:100B60003105D8F58A819B816115710589F1FB01F9
:100B700093838283FE0111C04081518102811381E0
:100B800048175907E0F04817590799F4109761F092
:100B900012960C93129713961C933296CF01DF9105
:100BA000CF911F910F9108950093EC021093ED02E5
:100BB000F4CF2115310551F04217530738F0A90140
:100BC000DB019A01BD01DF01F801C1CFEF01F9CFCF
:100BD0009093ED028093EC02CDCFFE01E20FF31F64
:100BE000819391932250310939832883D7CF209163
:100BF000EA023091EB02232B41F420910202309162
:100C000003023093EB022093EA022091000230911C
:100C100001022115310541F42DB73EB74091040280
:100C200050910502241B350BE091EA02F091EB0292
:100C3000E217F307A0F42E1B3F0B2817390778F0B3
:100C4000AC014E5F5F4F2417350748F04E0F5F1F12
:100C50005093EB024093EA02819391939FCFF0E08F
:100C6000E0E09CCFCF93DF930097E9F0FC0132974F
:100C700013821282A091EC02B091ED02ED0130E0FE
:100C800020E01097A1F420813181820F931F2091E1
:100C9000EA023091EB022817390709F061C0F0939E
:100CA000EB02E093EA02DF91CF910895EA01CE17BB
:100CB000DF07E8F54A815B819E0141155105B1F7D7
:100CC000E901FB83EA8349915991C40FD51FEC17C1
:100CD000FD0761F4808191810296840F951FE901DF
:100CE00099838883828193819B838A83F0E0E0E00B
:100CF00012968D919C9113970097B9F52D913C9187
:100D00001197CD010296820F931F2091EA02309134
:100D1000EB022817390739F6309751F51092ED029A
:100D20001092EC02B093EB02A093EA02BCCFD38303
:100D3000C28340815181840F951FC817D90761F480
:100D40004E5F5F4F88819981480F591F51834083BF
:100D50008A819B81938382832115310509F0B0CF6D
:100D6000F093ED02E093EC029ECFFD01DC01C0CFD9
:100D700013821282D7CF4F925F926F927F928F929F
:100D80009F92AF92BF92CF92DF92EF92FF920F931A
:100D90001F93CF93DF938C01009799F4CB01DF91E0
:100DA000CF911F910F91FF90EF90DF90CF90BF9068
:100DB000AF909F908F907F906F905F904F900C942A
:100DC0009605FC01E60FF71F9C0122503109E2173E
:100DD000F30708F4AEC0D901CD91DC911197C61785
:100DE000D70720F1C530D10578F0CE0104978617DA
:100DF000970750F0C61BD70B2297C193D1936D93E1
:100E00007C93CF010E943206C801DF91CF911F91E0
:100E10000F91FF90EF90DF90CF90BF90AF909F9099
:100E20008F907F906F905F904F9008955B01AC1A08
:100E3000BD0A4C018C0E9D1EA091EC02B091ED02FA
:100E4000512C412CF12CE12C109731F58091EA02C4
:100E50009091EB028815990509F05CC0461657067B
:100E600008F058C08091000290910102009741F46F
:100E70008DB79EB74091040250910502841B950BDB
:100E8000E817F90708F055C0F093EB02E093EA0287
:100E9000F90171836083B8CF8D919C91119712965F
:100EA0006C90129713967C901397A815B90559F575
:100EB0006C0142E0C40ED11CCA14DB0420F1AC0169
:100EC0004A195B09DA011296159780F062827382E3
:100ED00051834083D9016D937C93E114F10471F047
:100EE000D7011396FC93EE9312978ECF22968C0F18
:100EF0009D1FF90191838083F301EFCFF093ED0201
:100F0000E093EC0281CF4816590608F42C017D01CC
:100F1000D3019ACFCB010E9496057C01009749F03E
:100F2000AE01B8010E949C07C8010E9432068701E9
:100F30006BCF10E000E068CFFB01DC0102C0019044
:100F40000D9241505040D8F70895FC0181918617C9
:100F500021F08823D9F7992708953197CF01089573
:100F6000FB01DC0101900D920020E1F70895F89457
:020F7000FFCFB1
:100F72000000EE028000000000008C01B600E300D9
:100F8200D9015401F20046014472617700506C614C
:100F9200796572312077696E7300506C6179657280
:100FA200322077696E7300726573756C743A200033
:040FB2000D0A000024
:00000001FF
